:1000000065C0F1C17EC07DC07CC07BC07AC079C0B4
:1000100078C077C076C075C074C073C072C071C03C
:1000200070C06FC06EC00403090418036D0069003E
:100030007400780065006C0061002E0063006F00A2
:100040006D0024036D0069007400780065006C0089
:100050006100200058004B0020004A006F0079002A
:100060007000610064001201100100000008C01659
:10007000DF050001010200010902220001010080E8
:100080001909040000010300000009210101000119
:100090002232000705810308000A0501150026FF2A
:1000A0000075080904A1010901A100093009319571
:1000B000028182C0A1000932093395028182C00900
:1000C0003409350936093795048182C011241FBED1
:1000D000CFE5D2E0DEBFCDBF10E0A0E6B0E0E2E9C0
:1000E000F8E002C005900D92A236B107D9F710E0F2
:1000F000A2E6B0E001C01D92A33AB107E1F7FAD23F
:10010000C6C37ECF85B7836085BF8BB780648BBF46
:100110008BE4809379008AE58093780008951F939B
:10012000DC01162F8091780084FF07C08091790050
:1001300098E889278093790003C08AE58093780046
:10014000912FEAE7F0E08D91819391501916DCF33D
:100150008AE790E0612F30D11C5F109378001F91E7
:1001600008951F93CF93DF9390918900935097FD4B
:10017000A6C020918600809185008D3209F09DC037
:10018000983009F09AC0CCE0D0E0C21BD109C35727
:10019000DF4F83EC80936D008AE5809360001092BE
:1001A00063008881807621F0CE017BD2282F7CC02D
:1001B0009A81109276008981882321F41092770029
:1001C00022E06CC0853019F490938A0066C08630B6
:1001D00009F04FC08B81813041F486E690E0909326
:1001E00088008093870022E140C0823041F488E794
:1001F00090E0909388008093870022E236C083309D
:10020000F9F48A81882341F486E290E09093880093
:100210008093870024E029C0813041F48AE290E095
:10022000909388008093870028E11FC08230E1F41A
:1002300082E490E0909388008093870024E215C0C8
:10024000813241F48AE890E090938800809387009F
:1002500029E00BC0823241F48AE990E09093880053
:100260008093870022E301C020E080E48093630054
:100270001BC0883021F421E08CE890E011C0893067
:1002800019F490938C0009C08A3011F421E006C063
:100290008B3019F48BE48093790020E086E790E0BE
:1002A00090938800809387008F81882321F48E812A
:1002B000821708F4282F2093610010928900809102
:1002C000600084FF49C0809161008F3F09F444C001
:1002D000182F893008F018E0811B8093610080910D
:1002E0006D0098E8892780936D00112341F12091DA
:1002F0008700309188008091630086FF0DC0AEE6D4
:10030000B0E080E090E0F901E80FF91FE491ED938F
:1003100001961817C1F708C0912FD901EEE6F0E059
:100320008D9181939150E1F71150812F90E01F5FE3
:100330000196820F931F90938800809387008EE62A
:1003400090E0612F39D0612F6C5F6C3019F08FEF26
:10035000809361006093600094E186B3807631F40D
:100360009150D9F710928A001092840010E09923DE
:1003700009F411E080916200811729F0112309F43A
:1003800028D210936200DF91CF911F910895A82F7A
:10039000B92F80E090E041E050EA609530E009C07C
:1003A0002D9182279795879510F084279527305EA9
:1003B000C8F36F5FA8F30895EADF8D939D930895C6
:1003C000A6E088279927AA9569F00197E1F3B599E6
:1003D000FCCFB59BFECF81E09927A6B3019611F023
:1003E000A076D9F70895CF93CFB7CF93C395B59B98
:1003F000E9F7B59B0BC0B59B09C0B59B07C0B59B82
:1004000005C0B59B03C0B59B01C0D5C00F92DF935B
:10041000C0918600DD27C357DF4F012EB59B03C077
:10042000DF910F90E6CF2F930F931F934F932FEFF2
:100430004F6F06B305FB20F95F933F9350E03BE01D
:1004400065C016B30126502955FDC89556B301273E
:1004500005FB25F92F7306B3B1F05027102715FBC4
:1004600026F906B22230F0F000C016B3012705FBD2
:1004700027F90126502906B22430E8F54F77206885
:1004800016B30000F6CF50274F7D206206B2102F22
:10049000000000C006B300265029102715FB26F9DE
:1004A00006B2E2CF4F7B06B3206400C0DACF01264C
:1004B0005029107606B269F14E7F2160012F16B3E4
:1004C00028C0002650294D7F06B22260102F29C077
:1004D000012650294B7F06B22460012F2DC016B390
:1004E00001265029477F2860000006B22EC04F7EAB
:1004F00006B3206130C0422706B349930026502935
:10050000102706B24FEF15FB20F9297F16B379F2B9
:10051000107659F10126502906B2012705FB21F971
:10052000237F06B371F2002650293150D0F006B275
:10053000102715FB22F9277E16B351F20126502908
:10054000012705FB06B223F92F7C49F2000006B310
:10055000102715FB24F90026502906B22F7939F20D
:1005600070CF10E41ABF002719C03B503195C31B50
:10057000D04010E41ABF0881033C09F10B34F9F0B4
:10058000209184001981110F1213EDCF4A81441F6D
:10059000093651F10D3211F0013E29F700938B001D
:1005A0003F915F914F911F910F912F91DF910F908C
:1005B000CAB7C6FD1BCFCF91CFBFCF911895209161
:1005C0008B00222369F310918900112379F53430CF
:1005D0007AF13093890020938500109186003BE0EA
:1005E000311B3093860024C0009189000130F4F45F
:1005F0000AE54F7049F43091600034FD1AC0009351
:100600006000CDE6D0E019C03091780034FD11C013
:1006100000937800C9E7D0E010C0052710E000C0C3
:1006200021C0052710E0C89508BB14C03AE501C0F9
:1006300032ED032EC0E0D0E032E017B31066C59A69
:1006400008B317BB50E620E84FEF20FF052708BB93
:10065000279517951C3F28F700004552B0F720FF5B
:100660000527279508BB17951C3FB8F629913A95A1
:1006700061F70F7910918A00110F08BBC250D0406A
:1006800011F01093840010E41ABF006217B31F79B1
:10069000402F4F7954E05A95F1F708BB17BB48BB80
:1006A0007FCFFC0184E690E09093880080938700E0
:1006B000808180768032B1F48181813011F488E0CC
:1006C0000895823041F48CE690E090938800809306
:1006D000870081E008958A3029F4838180936C003B
:1006E00080E0089580E0089586ED86B9349BFECFC2
:1006F00085B10895DF92EF92FF920F931F93BD9AF9
:1007000020E043EB51EFCA010197F1F72F5F24314D
:10071000D1F7BD981ABABC98B49905C08FE086BFCE
:1007200080E385BF88952EE088E190E00FB6F894CD
:10073000A89581BD0FBE21BDE5DC789423E2D22EC1
:1007400016ED94E2E92E85E2F82E06E2A89509DD81
:100750008091780084FFFACFD7B816B9349BFECFCA
:1007600085B180936400E7B816B9349BFECF85B19C
:1007700080936500F7B816B9349BFECF85B180939E
:10078000660007B916B9349BFECF85B18093670028
:10079000C89902C080E001C08FEF80936800C999BA
:1007A00002C080E001C08FEF80936900CA9902C047
:1007B00080E001C08FEF80936A00CB9902C080E097
:1007C00001C08FEF80936B0084E690E068E0A7DCC7
:1007D000BDCFDF92EF92FF920F931F93CF93DF93E2
:1007E000F89400E030E8D32EEE24FF241D2D100FE6
:1007F00011BFE6DDEC0189E0C433D8070CF0102FFF
:10080000D6940894E11CF11C88E0E816F10411F07C
:10081000012FECCF115011BF1F5FE12EFF24089470
:10082000E11CF11C13C0CCDD9C012453394037FF7F
:1008300003C0309521953F4F2C173D0714F09E01C2
:1008400001C011B781B78F5F81BFE90181B790E027
:10085000E816F90644F711BF789461B780E090E09C
:1008600008D0DF91CF911F910F91FF90EF90DF9013
:100870000895262FE199FECF1CBA9FBB8EBB2DBBDE
:100880000FB6F894E29AE19A0FBE01960895F89493
:02089000FFCF98
:020892005AFF0B
:00000001FF
